{
  "contractName": "Trade",
  "abi": [
    {
      "anonymous": false,
      "inputs": [
        {
          "indexed": false,
          "internalType": "bytes32",
          "name": "_tradeID",
          "type": "bytes32"
        }
      ],
      "name": "TradeCreated",
      "type": "event"
    },
    {
      "constant": false,
      "inputs": [
        {
          "internalType": "bytes32",
          "name": "_tradeID",
          "type": "bytes32"
        }
      ],
      "name": "addTrade",
      "outputs": [],
      "payable": false,
      "stateMutability": "nonpayable",
      "type": "function"
    },
    {
      "constant": true,
      "inputs": [
        {
          "internalType": "bytes32",
          "name": "_tradeID",
          "type": "bytes32"
        }
      ],
      "name": "getTrade",
      "outputs": [
        {
          "internalType": "bytes32",
          "name": "",
          "type": "bytes32"
        }
      ],
      "payable": false,
      "stateMutability": "view",
      "type": "function"
    }
  ],
  "bytecode": "0x608060405234801561001057600080fd5b50610167806100206000396000f3fe608060405234801561001057600080fd5b50600436106100365760003560e01c8063a3b137991461003b578063bd8c4a991461007d575b600080fd5b6100676004803603602081101561005157600080fd5b81019080803590602001909291905050506100ab565b6040518082815260200191505060405180910390f35b6100a96004803603602081101561009357600080fd5b81019080803590602001909291905050506100ca565b005b6000806000838152602001908152602001600020600001549050919050565b604051806020016040528082815250600080838152602001908152602001600020600082015181600001559050507f72dbb4020c53749dc8545b23b311eeb1dff0b7c1104f9c22edf39a3c696ad838816040518082815260200191505060405180910390a15056fea265627a7a72315820ae0775e6796c9f5af3298fbadf8cf38dcec317d4a5466b2d308040befc232ca064736f6c63430005100032",
  "source": "pragma solidity >=0.5.1 <0.6.0;\r\n\r\ncontract Trade{\r\n    \r\n    event TradeCreated(bytes32 _tradeID);\r\n    \r\n    struct tradeStruct{\r\n        bytes32 tradeID ;\r\n    }\r\n    \r\n    mapping(bytes32 => tradeStruct) tradeList;\r\n    \r\n    function addTrade(bytes32 _tradeID) public {\r\n        tradeList[_tradeID] = tradeStruct(_tradeID);\r\n        emit TradeCreated(_tradeID);\r\n    }\r\n    \r\n    function getTrade(bytes32 _tradeID) public view returns(bytes32){\r\n        return(tradeList[_tradeID].tradeID);\r\n    }\r\n}",
  "sourcePath": "D:/MyNetwork/contracts/Trade.sol",
  "compiler": {
    "name": "solc",
    "version": "0.5.16+commit.9c3226ce.Emscripten.clang"
  },
  "schemaVersion": "3.4.1",
  "updatedAt": "2021-06-28T15:04:58.139Z",
  "networkType": "ethereum",
  "devdoc": {
    "methods": {}
  },
  "userdoc": {
    "methods": {}
  }
}